:100000000C9462000C948A000C948A000C948A0070
:100010000C948A000C948A000C948A000C948A0038
:100020000C948A000C948A000C948A000C948A0028
:100030000C948A000C948A000C948A000C948A0018
:100040000C941E050C948A000C948A000C948A006F
:100050000C948A000C948A000C948A000C948A00F8
:100060000C948A000C948A00000000080002010031
:100070000003040700000000000000000102040863
:100080001020408001020408102001020408102002
:10009000040404040404040402020202020203032E
:1000A00003030303000000002300260029000000D2
:1000B0000000250028002B0000000000240027007D
:1000C0002A00F20111241FBECFEFD8E0DEBFCDBF62
:1000D00011E0A0E0B1E0E6E3F2E102C005900D928C
:1000E000AC30B107D9F721E0ACE0B1E001C01D921E
:1000F000A434B207E1F710E0C4ECD0E004C02297CA
:10010000FE010E940609C23CD107C9F70E940F05F3
:100110000C9419090C9400008AE391E00E940202F9
:1001200061E08DE00E94F50560E08FE00E94F5053A
:1001300060E080E10E94F50560E081E10E94F50544
:1001400060E082E10E94F50561E08FE00E942E06EA
:1001500061E080E10E942E0661E081E10E942E06AE
:1001600061E082E10C942E068FE00E946406909379
:1001700015018093140180E10E946406909313019D
:100180008093120181E10E94640690931101809393
:10019000100182E10E94640690930F0180930E018A
:1001A000892B19F484E090E01AC080911401909199
:1001B0001501892B19F481E090E011C080911201A2
:1001C00090911301892B19F482E090E008C080918E
:1001D000100190911101892B39F483E090E0909304
:1001E0000D0180930C01089510920D0110920C01E5
:1001F00008954F925F926F927F92AF92BF92CF928B
:10020000DF92EF92FF920F931F938AE191E00E9499
:1002100035040E94B400A0901801B0901901CC24BC
:10022000B7FCC094DC2CE0900601F0900701002799
:10023000F7FC0095102F2091080130910901442707
:1002400037FD4095542F4090350150903601B20152
:10025000882777FD8095982FE0910401F0910501A2
:100260002F01662457FC6094762C7F926F925F92E8
:100270004F920E94C70420911801309119010F90EC
:100280000F900F900F906217730744F020910401B4
:1002900030910501AB01261737070CF4A9015093E3
:1002A00017014093160180910C0190910D0182304D
:1002B000910509F44FC02CF40097B9F0019769F14A
:1002C00084C08330910509F452C0049709F07DC0C1
:1002D00022E030E040E061E070E08AE391E00E94DB
:1002E000600222E030E040E05EC061E070E08AE35E
:1002F00091E00E94FD0260E070E08AE391E01F91CE
:100300000F91FF90EF90DF90CF90BF90AF907F90D4
:100310006F905F904F900C94FD02BA0157FF02C09E
:100320006F5F7F4FAB015595479520E030E061E06E
:1003300070E08AE391E00E946002409116015091C2
:10034000170157FF02C04F5F5F4F5595479520E05B
:1003500030E029C020E030E061E070E08AE391E025
:100360000E94600220E030E0409116011CC0BA01FA
:1003700057FF02C06F5F7F4FAB015595479521E056
:1003800030E061E070E08AE391E00E946002409119
:1003900016015091170157FF02C04F5F5F4F5595EF
:1003A000479521E030E060E070E08AE391E01F9142
:1003B0000F91FF90EF90DF90CF90BF90AF907F9024
:1003C0006F905F904F900C9460021F910F91FF907F
:1003D000EF90DF90CF90BF90AF907F906F905F9045
:1003E0004F9008950F931F930AE017ED23E23CE32B
:1003F00041E06EE070E08AE191E00E9483041F9189
:100400000F91089561E082E00E94F50561E084E0CB
:100410000E94F50561E088E00E94F50561E087E053
:100420000E94F50560E084E00E942E0660E087E00F
:100430000E942E0661E082E00E942E0661E088E0C4
:100440000E942E0661E083E00E94F50561E08BE0EA
:100450000E94F50561E089E00E94F50561E08AE00F
:100460000E94F50561E083E00E942E0661E08BE0CA
:100470000E942E0661E089E00E942E0661E08AE07B
:100480000E942E06E0E8F0E01082A1E8B0E01C92A5
:10049000109282008081816080838081816080836E
:1004A0008C9182608C93A0EBB0E01C92E1EBF0E0C9
:1004B00010828C9181608C9380818260808308950A
:1004C00040956115710509F046C02115310579F493
:1004D0004093B4008091B00080628093B00080911E
:1004E000B0008F778093B00061E08BE083C0223052
:1004F000310561F48091B0008F778093B0008091D6
:10050000B0008F7D8093B00061E00EC023303105D4
:1005100099F48091B0008F778093B0008091B00003
:100520008F7D8093B00060E082E00E942E0661E043
:100530008BE00E942E060CC04093B3008091B00067
:1005400080688093B0008091B0008F7D8093B00070
:1005500061E083E04FC06130710509F04DC02115A5
:10056000310591F450E050938900409388008091C8
:100570008000806880938000809180008F7D8093D0
:10058000800061E08AE036C02230310561F480915C
:1005900080008F7D80938000809180008F77809392
:1005A000800061E00EC02330310599F48091800015
:1005B0008F7D80938000809180008F778093800072
:1005C00060E088E00E942E0661E08AE00E942E062C
:1005D0000FC050E050938B0040938A0080918000C0
:1005E000806280938000809180008F77809380006C
:1005F00061E089E00C942E0608956115710589F477
:100600008091B0008F778093B0008091B0008F7D93
:100610008093B00061E08BE00E942E0661E083E0F1
:1006200013C06130710591F4809180008F7D8093BB
:100630008000809180008F778093800061E08AE065
:100640000E942E0661E089E00C942E0608950F9317
:100650001F93CF93DF93CB01BA0120E030E040E855
:100660005FE30E948E069B01AC0160E070E080E8D1
:100670009FE30E94F6069B01AC0160E070E080E819
:100680009FE30E948D069B01AC010E948E068B01A8
:10069000D82FC92F20E030E040E85FE30E944108F6
:1006A000181624F400E010E0D0E8CFE3B8018D2F55
:1006B0009C2FDF91CF911F910F9108954F925F92E0
:1006C0006F927F928F929F92AF92BF92CF92DF9262
:1006D000EF92FF921F93CF93DF93EC017B010E9477
:1006E00068052B013C0118851123D9F08F858823DB
:1006F000C1F08B859C85E816F90628F4EE0CFF1CEA
:10070000E81AF90A0EC02A813B81A901481B590B3E
:100710004E155F0530F4821B930BEE0CFF1CE80EA8
:10072000F91E88889988AA88BB88B701882777FD31
:100730008095982F0E949107A50194010E948D0633
:100740006B017C0120E030E0A9010E9441081816ED
:100750001CF4C701B60103C0C701B60190580E943E
:100760006307CB01112331F1288D222319F02B854A
:100770003C8502C02D853E852817390720F44C8A18
:100780005D8A6E8A7F8A29853A854C895D896E8962
:100790007F89420F531F611D711D21E044155505CE
:1007A0006605770508F020E0288F222319F0C5019F
:1007B000B40148C0BC0180E090E00E948F072C810A
:1007C0003D814E815F810E944508AB01BC01CE0195
:1007D0000E9427039B01AC01C701B6010E94450896
:1007E0009B01AC01C501B4010E948E066B017C0126
:1007F000688B798B8A8B9B8B20E030E0A9010E946B
:10080000F20687FF05C0188A198A1A8A1B8A16C041
:100810006A817B816150710980E090E00E948F07BE
:100820004B015C019B01AC01C701B6010E9441086C
:10083000181624F4888A998AAA8ABB8A68897989D1
:100840008A899B890E945E07CB01DF91CF911F911E
:10085000FF90EF90DF90CF90BF90AF909F908F90E0
:100860007F906F905F904F900895CF93DF93EC014E
:1008700088810E94AF059A8F898F2B8D3C8D3E8F8A
:100880002D8FBC01CE010E945E039C8F8B8F41E0B7
:100890002D8D3E8D8217930709F440E04F8FDF9135
:1008A000CF910895CF92DF92EF92FF92CF93DF9393
:1008B000EC016A017B0120E030E040E85FE3C70122
:1008C000B6010E94410818166CF020E030E0A90142
:1008D000C701B6010E94F20687FF0AC0C12CD12CC5
:1008E000760106C0C12CD12C40E8E42E4FE3F42E53
:1008F000CC82DD82EE82FF82DF91CF91FF90EF907C
:10090000DF90CF9008958F929F92BF92CF92DF9207
:10091000EF92FF920F931F93CF93DF9300D0CDB749
:10092000DEB74C01B62E6801790120E034E0FC010D
:100930003383228324E130E03487238725E030E0CD
:100940003687258781E08787108E60E08B2D49836D
:100950007A830E94F50560E08B2D0E942E06F4013B
:10096000B0827A81718349814087B701A601C401B1
:100970000F900F90DF91CF911F910F91FF90EF900B
:10098000DF90CF90BF909F908F900C9452044F9225
:100990005F926F927F92AF92BF92CF92DF92EF926F
:1009A000FF920F931F93CF93DF93CDB7DEB729014B
:1009B0003A01621B730B840B950B29893A894B8989
:1009C0005C892A193B094C095D09298B3A8B4B8BB1
:1009D0005C8B9B01AC0169897A898B899C890E9417
:1009E000A808E418F50806091709A80197010E944C
:1009F000B8082A0D3B1D4C1D5D1DCA01B901DF91D0
:100A0000CF911F910F91FF90EF90DF90CF90BF900B
:100A1000AF907F906F905F904F90089508950E94DF
:100A200074050E940E050E948C00C0E0D0E00E9478
:100A3000F9002097E1F30E940000F9CF1F920F9276
:100A40000FB60F9211242F933F938F939F93AF93E1
:100A5000BF9380913C0190913D01A0913E01B091E6
:100A60003F0130913B0123E0230F2D3720F4019605
:100A7000A11DB11D05C026E8230F0296A11DB11DC1
:100A800020933B0180933C0190933D01A0933E0154
:100A9000B0933F018091400190914101A0914201AA
:100AA000B09143010196A11DB11D80934001909327
:100AB0004101A0934201B0934301BF91AF919F9137
:100AC0008F913F912F910F900FBE0F901F9018950F
:100AD0002FB7F89460913C0170913D0180913E01E7
:100AE00090913F012FBF0895789484B5826084BDB2
:100AF00084B5816084BD85B5826085BD85B5816022
:100B000085BDEEE6F0E0808181608083E1E8F0E081
:100B10001082808182608083808181608083E0E8B0
:100B2000F0E0808181608083E1EBF0E0808184608F
:100B30008083E0EBF0E0808181608083EAE7F0E091
:100B400080818460808380818260808380818160F5
:100B500080838081806880831092C10008958E30E8
:100B600008F08E50877020910A0190E4299F90012F
:100B70001124822B80937C0080917A008064809382
:100B80007A0080917A0086FDFCCF809178002091D8
:100B9000790090E0922B0895833081F028F4813021
:100BA00099F08230A1F008958730A9F08830B9F02B
:100BB0008430D1F4809180008F7D03C080918000CB
:100BC0008F7780938000089584B58F7702C084B5B5
:100BD0008F7D84BD08958091B0008F7703C0809190
:100BE000B0008F7D8093B0000895CF93DF9390E0A5
:100BF000FC01E458FF4F2491FC01E057FF4F849122
:100C0000882349F190E0880F991FFC01E854FF4FB9
:100C1000A591B49182559F4FFC01C591D4919FB786
:100C2000611108C0F8948C91209582238C9388815F
:100C300082230AC0623051F4F8948C91322F30959F
:100C400083238C938881822B888304C0F8948C91B1
:100C5000822B8C939FBFDF91CF9108950F931F93A9
:100C6000CF93DF931F92CDB7DEB7282F30E0F90185
:100C7000E859FF4F8491F901E458FF4F1491F901AD
:100C8000E057FF4F04910023C9F0882321F06983C6
:100C90000E94CC056981E02FF0E0EE0FFF1FE255C6
:100CA000FF4FA591B4919FB7F8948C91611103C047
:100CB0001095812301C0812B8C939FBF0F90DF91F2
:100CC000CF911F910F910895CF93DF93282F30E09C
:100CD000F901E859FF4F8491F901E458FF4FD4918D
:100CE000F901E057FF4FC491CC2391F081110E948C
:100CF000CC05EC2FF0E0EE0FFF1FEC55FF4FA59158
:100D0000B4912C912D2381E090E021F480E002C089
:100D100080E090E0DF91CF9108955058BB27AA273B
:100D20000ED075C166D130F06BD120F031F49F3F09
:100D300011F41EF45BC10EF4E095E7FB51C1E92FFD
:100D400077D180F3BA17620773078407950718F005
:100D500071F49EF58FC10EF4E0950B2EBA2FA02DE5
:100D60000B01B90190010C01CA01A0011124FF2758
:100D7000591B99F0593F50F4503E68F11A16F04053
:100D8000A22F232F342F4427585FF3CF4695379552
:100D90002795A795F0405395C9F77EF41F16BA0B17
:100DA000620B730B840BBAF09150A1F0FF0FBB1FC5
:100DB000661F771F881FC2F70EC0BA0F621F731F0E
:100DC000841F48F4879577956795B795F7959E3F6B
:100DD00008F0B3CF9395880F08F09927EE0F9795F9
:100DE00087950895D9D008F481E008950CD00FC1FB
:100DF00007D140F0FED030F021F45F3F19F0F0C091
:100E0000511139C1F3C014D198F39923C9F3552373
:100E1000B1F3951B550BBB27AA27621773078407ED
:100E200038F09F5F5F4F220F331F441FAA1FA9F3A3
:100E300033D00E2E3AF0E0E830D091505040E69595
:100E4000001CCAF729D0FE2F27D0660F771F881FF6
:100E5000BB1F261737074807AB07B0E809F0BB0BE5
:100E6000802DBF01FF2793585F4F2AF09E3F510509
:100E700068F0B6C000C15F3FECF3983EDCF38695A6
:100E800077956795B795F7959F5FC9F7880F911D7F
:100E90009695879597F90895E1E0660F771F881F6B
:100EA000BB1F621773078407BA0720F0621B730B1E
:100EB000840BBA0BEE1F88F7E095089504D0689470
:100EC000B111D9C00895BCD088F09F5790F0B92FC8
:100ED0009927B751A0F0D1F0660F771F881F991F8F
:100EE0001AF0BA95C9F712C0B13081F0C3D0B1E0A1
:100EF0000895C0C0672F782F8827B85F39F0B93FB1
:100F0000CCF3869577956795B395D9F73EF4909590
:100F10008095709561957F4F8F4F9F4F0895E8940E
:100F200009C097FB3EF490958095709561957F4F31
:100F30008F4F9F4F9923A9F0F92F96E9BB279395DF
:100F4000F695879577956795B795F111F8CFFAF4EF
:100F5000BB0F11F460FF1BC06F5F7F4F8F4F9F4F20
:100F600016C0882311F096E911C0772321F09EE87E
:100F7000872F762F05C0662371F096E8862F70E0E4
:100F800060E02AF09A95660F771F881FDAF7880FBE
:100F90009695879597F90895990F0008550FAA0B14
:100FA000E0E8FEEF16161706E807F907C0F012167C
:100FB0001306E407F50798F0621B730B840B950B7F
:100FC00039F40A2661F0232B242B252B21F40895D4
:100FD0000A2609F4A140A6958FEF811D811D089571
:100FE00097F99F6780E870E060E008959FEF80ECDC
:100FF000089500240A94161617061806090608957F
:1010000000240A9412161306140605060895092EE4
:101010000394000C11F4882352F0BB0F40F4BF2B53
:1010200011F460FF04C06F5F7F4F8F4F9F4F089593
:1010300057FD9058440F551F59F05F3F71F0479589
:10104000880F97FB991F61F09F3F79F0879508956E
:10105000121613061406551FF2CF4695F1DF08C08D
:10106000161617061806991FF1CF869571056105AA
:1010700008940895E894BB2766277727CB0197F952
:1010800008958ADF08F48FEF08950BD0C0CFB1DF49
:1010900028F0B6DF18F0952309F0A2CFA7CF1124CE
:1010A000EACFC6DFA0F3959FD1F3950F50E0551F0F
:1010B000629FF001729FBB27F00DB11D639FAA27AD
:1010C000F00DB11DAA1F649F6627B00DA11D661FFC
:1010D000829F2227B00DA11D621F739FB00DA11D1D
:1010E000621F839FA00D611D221F749F3327A00DD7
:1010F000611D231F849F600D211D822F762F6A2F73
:1011000011249F5750408AF0E1F088234AF0EE0FF7
:10111000FF1FBB1F661F771F881F91505040A9F704
:101120009E3F510570F05CCFA6CF5F3FECF3983E39
:10113000DCF3869577956795B795F795E7959F5F6B
:10114000C1F7FE2B880F911D9695879597F9089505
:10115000DB018F939F930E94D708BF91AF91A29F0D
:10116000800D911DA39F900DB29F900D11240895A5
:10117000052E97FB1EF400940E94CF0857FD07D060
:101180000E94E20807FC03D04EF40C94CF0850955F
:101190004095309521953F4F4F4F5F4F0895909563
:1011A0008095709561957F4F8F4F9F4F08950E9456
:1011B0000A09A59F900DB49F900DA49F800D911DCD
:1011C00011240895A1E21A2EAA1BBB1BFD010DC01C
:1011D000AA1FBB1FEE1FFF1FA217B307E407F507E7
:1011E00020F0A21BB30BE40BF50B661F771F881FC3
:1011F000991F1A9469F760957095809590959B0159
:10120000AC01BD01CF010895EE0FFF1F0590F491D1
:10121000E02D0994A29FB001B39FC001A39F700D60
:10122000811D1124911DB29F700D811D1124911DEE
:061230000895F894FFCFC1
:0C123600010000008C004803BE00010015
:00000001FF
